{
  "contractName": "Escrow",
  "abi": [
    {
      "constant": true,
      "inputs": [],
      "name": "agreement",
      "outputs": [
        {
          "name": "agreementPrice",
          "type": "uint256"
        },
        {
          "name": "clientAddress",
          "type": "address"
        },
        {
          "name": "providerAddress",
          "type": "address"
        },
        {
          "name": "previewMessage",
          "type": "bytes32"
        },
        {
          "name": "finalMessage",
          "type": "bytes32"
        },
        {
          "name": "approved",
          "type": "bool"
        }
      ],
      "payable": false,
      "stateMutability": "view",
      "type": "function"
    },
    {
      "constant": true,
      "inputs": [],
      "name": "stage",
      "outputs": [
        {
          "name": "",
          "type": "uint8"
        }
      ],
      "payable": false,
      "stateMutability": "view",
      "type": "function"
    },
    {
      "inputs": [
        {
          "name": "_agreementPrice",
          "type": "uint256"
        },
        {
          "name": "_clientAddress",
          "type": "address"
        }
      ],
      "payable": false,
      "stateMutability": "nonpayable",
      "type": "constructor"
    },
    {
      "anonymous": false,
      "inputs": [
        {
          "indexed": true,
          "name": "_contributor",
          "type": "address"
        },
        {
          "indexed": true,
          "name": "_value",
          "type": "uint256"
        }
      ],
      "name": "Contribute",
      "type": "event"
    },
    {
      "constant": true,
      "inputs": [],
      "name": "getAgreement",
      "outputs": [
        {
          "name": "agreementPrice",
          "type": "uint256"
        },
        {
          "name": "clientAddress",
          "type": "address"
        },
        {
          "name": "providerAddress",
          "type": "address"
        },
        {
          "name": "previewMessage",
          "type": "bytes32"
        },
        {
          "name": "finalMessage",
          "type": "bytes32"
        },
        {
          "name": "approved",
          "type": "bool"
        }
      ],
      "payable": false,
      "stateMutability": "view",
      "type": "function"
    },
    {
      "constant": true,
      "inputs": [],
      "name": "getProviderAddress",
      "outputs": [
        {
          "name": "",
          "type": "address"
        }
      ],
      "payable": false,
      "stateMutability": "view",
      "type": "function"
    },
    {
      "constant": true,
      "inputs": [],
      "name": "getClientAddress",
      "outputs": [
        {
          "name": "",
          "type": "address"
        }
      ],
      "payable": false,
      "stateMutability": "view",
      "type": "function"
    },
    {
      "constant": false,
      "inputs": [],
      "name": "contributeFunding",
      "outputs": [],
      "payable": true,
      "stateMutability": "payable",
      "type": "function"
    },
    {
      "constant": false,
      "inputs": [
        {
          "name": "_previewMessage",
          "type": "bytes32"
        }
      ],
      "name": "setPreviewMessage",
      "outputs": [],
      "payable": false,
      "stateMutability": "nonpayable",
      "type": "function"
    },
    {
      "constant": false,
      "inputs": [
        {
          "name": "_finalMessage",
          "type": "bytes32"
        }
      ],
      "name": "setFinalMessage",
      "outputs": [],
      "payable": false,
      "stateMutability": "nonpayable",
      "type": "function"
    },
    {
      "constant": true,
      "inputs": [],
      "name": "getPreviewMessage",
      "outputs": [
        {
          "name": "",
          "type": "bytes32"
        }
      ],
      "payable": false,
      "stateMutability": "view",
      "type": "function"
    },
    {
      "constant": false,
      "inputs": [],
      "name": "approvePreview",
      "outputs": [],
      "payable": false,
      "stateMutability": "nonpayable",
      "type": "function"
    },
    {
      "constant": true,
      "inputs": [],
      "name": "getFinalMessage",
      "outputs": [
        {
          "name": "",
          "type": "bytes32"
        }
      ],
      "payable": false,
      "stateMutability": "view",
      "type": "function"
    },
    {
      "constant": true,
      "inputs": [],
      "name": "getFundingAmount",
      "outputs": [
        {
          "name": "",
          "type": "uint256"
        }
      ],
      "payable": false,
      "stateMutability": "view",
      "type": "function"
    },
    {
      "constant": false,
      "inputs": [],
      "name": "kill",
      "outputs": [],
      "payable": false,
      "stateMutability": "nonpayable",
      "type": "function"
    }
  ],
  "bytecode": "0x608060405260008060006101000a81548160ff0219169083600381111561002257fe5b021790555034801561003357600080fd5b50604051604080610c7b833981018060405281019080805190602001909291908051906020019092919050505081600160000181905550806001800160006101000a81548173ffffffffffffffffffffffffffffffffffffffff021916908373ffffffffffffffffffffffffffffffffffffffff16021790555033600160020160006101000a81548173ffffffffffffffffffffffffffffffffffffffff021916908373ffffffffffffffffffffffffffffffffffffffff1602179055506000600160050160006101000a81548160ff0219169083151502179055505050610b5b806101206000396000f3006080604052600436106100c5576000357c0100000000000000000000000000000000000000000000000000000000900463ffffffff1680632da2f201146100ca578063370c4d5b146100fb5780633d2e4f901461012657806341c0e1b51461013d5780637db3a946146101545780637ec465f81461020e5780639ea6b4f414610241578063ba8028fa14610298578063bca60cf5146102cb578063c040e6b814610385578063d19f8de9146103be578063f72115d7146103c8578063fa174e0b146103f9575b600080fd5b3480156100d657600080fd5b506100f96004803603810190808035600019169060200190929190505050610450565b005b34801561010757600080fd5b506101106104ef565b6040518082815260200191505060405180910390f35b34801561013257600080fd5b5061013b61050e565b005b34801561014957600080fd5b50610152610645565b005b34801561016057600080fd5b506101696106df565b604051808781526020018673ffffffffffffffffffffffffffffffffffffffff1673ffffffffffffffffffffffffffffffffffffffff1681526020018573ffffffffffffffffffffffffffffffffffffffff1673ffffffffffffffffffffffffffffffffffffffff1681526020018460001916600019168152602001836000191660001916815260200182151515158152602001965050505050505060405180910390f35b34801561021a57600080fd5b50610223610756565b60405180826000191660001916815260200191505060405180910390f35b34801561024d57600080fd5b506102566107f0565b604051808273ffffffffffffffffffffffffffffffffffffffff1673ffffffffffffffffffffffffffffffffffffffff16815260200191505060405180910390f35b3480156102a457600080fd5b506102ad61081c565b60405180826000191660001916815260200191505060405180910390f35b3480156102d757600080fd5b506102e06108b6565b604051808781526020018673ffffffffffffffffffffffffffffffffffffffff1673ffffffffffffffffffffffffffffffffffffffff1681526020018573ffffffffffffffffffffffffffffffffffffffff1673ffffffffffffffffffffffffffffffffffffffff1681526020018460001916600019168152602001836000191660001916815260200182151515158152602001965050505050505060405180910390f35b34801561039157600080fd5b5061039a610931565b604051808260038111156103aa57fe5b60ff16815260200191505060405180910390f35b6103c6610943565b005b3480156103d457600080fd5b506103f76004803603810190808035600019169060200190929190505050610a00565b005b34801561040557600080fd5b5061040e610ab7565b604051808273ffffffffffffffffffffffffffffffffffffffff1673ffffffffffffffffffffffffffffffffffffffff16815260200191505060405180910390f35b600180600381111561045e57fe5b6000809054906101000a900460ff16600381111561047857fe5b14151561048157fe5b600160020160009054906101000a900473ffffffffffffffffffffffffffffffffffffffff1673ffffffffffffffffffffffffffffffffffffffff163373ffffffffffffffffffffffffffffffffffffffff161415156104dd57fe5b81600160030181600019169055505050565b60003073ffffffffffffffffffffffffffffffffffffffff1631905090565b600280600381111561051c57fe5b6000809054906101000a900460ff16600381111561053657fe5b14151561053f57fe5b6001800160009054906101000a900473ffffffffffffffffffffffffffffffffffffffff1673ffffffffffffffffffffffffffffffffffffffff163373ffffffffffffffffffffffffffffffffffffffff1614151561059a57fe5b60018060050160006101000a81548160ff021916908315150217905550600160020160009054906101000a900473ffffffffffffffffffffffffffffffffffffffff1673ffffffffffffffffffffffffffffffffffffffff166108fc3073ffffffffffffffffffffffffffffffffffffffff16319081150290604051600060405180830381858888f19350505050158015610639573d6000803e3d6000fd5b50610642610ae4565b50565b600160020160009054906101000a900473ffffffffffffffffffffffffffffffffffffffff1673ffffffffffffffffffffffffffffffffffffffff163373ffffffffffffffffffffffffffffffffffffffff161415156106a157fe5b600160020160009054906101000a900473ffffffffffffffffffffffffffffffffffffffff1673ffffffffffffffffffffffffffffffffffffffff16ff5b60018060000154908060010160009054906101000a900473ffffffffffffffffffffffffffffffffffffffff16908060020160009054906101000a900473ffffffffffffffffffffffffffffffffffffffff16908060030154908060040154908060050160009054906101000a900460ff16905086565b6000600380600381111561076657fe5b6000809054906101000a900460ff16600381111561078057fe5b14151561078957fe5b6001800160009054906101000a900473ffffffffffffffffffffffffffffffffffffffff1673ffffffffffffffffffffffffffffffffffffffff163373ffffffffffffffffffffffffffffffffffffffff161415156107e457fe5b60016004015491505090565b60006001800160009054906101000a900473ffffffffffffffffffffffffffffffffffffffff16905090565b6000600280600381111561082c57fe5b6000809054906101000a900460ff16600381111561084657fe5b14151561084f57fe5b6001800160009054906101000a900473ffffffffffffffffffffffffffffffffffffffff1673ffffffffffffffffffffffffffffffffffffffff163373ffffffffffffffffffffffffffffffffffffffff161415156108aa57fe5b60016003015491505090565b60008060008060008060016000015495506001800160009054906101000a900473ffffffffffffffffffffffffffffffffffffffff169450600160020160009054906101000a900473ffffffffffffffffffffffffffffffffffffffff16935060016003015492506001600401549150809050909192939495565b6000809054906101000a900460ff1681565b34600160060160003373ffffffffffffffffffffffffffffffffffffffff1673ffffffffffffffffffffffffffffffffffffffff168152602001908152602001600020819055506001600001543073ffffffffffffffffffffffffffffffffffffffff1631101515156109b257fe5b343373ffffffffffffffffffffffffffffffffffffffff167f906faaf913a60f38b5e8f2d6f5b163239bac2d994fa1a5d21751a51587a9405760405160405180910390a36109fe610ae4565b565b6001806003811115610a0e57fe5b6000809054906101000a900460ff166003811115610a2857fe5b141515610a3157fe5b600160020160009054906101000a900473ffffffffffffffffffffffffffffffffffffffff1673ffffffffffffffffffffffffffffffffffffffff163373ffffffffffffffffffffffffffffffffffffffff16141515610a8d57fe5b6000602060ff16111515610a9d57fe5b8160016004018160001916905550610ab3610ae4565b5050565b6000600160020160009054906101000a900473ffffffffffffffffffffffffffffffffffffffff16905090565b60016000809054906101000a900460ff166003811115610b0057fe5b016003811115610b0c57fe5b6000806101000a81548160ff02191690836003811115610b2857fe5b02179055505600a165627a7a72305820abaa13a235dc468a60eec9dfb1d94ebb9ff129396474236ef6efa5402e603a010029",
  "source": "pragma solidity 0.4.24;\n\n\ncontract Escrow {\n    // Stage Management\n    enum Stages {\n        Funding,\n        SetStrings,\n        ApproveOrReject,\n        PayoutAndReveal\n    }\n\n    Stages public stage = Stages.Funding;\n\n    modifier isProvider() {\n        assert(msg.sender == agreement.providerAddress);\n        _;\n    }\n\n    modifier isClient() {\n        assert(msg.sender == agreement.clientAddress);\n        _;\n    }\n\n    modifier atStage(Stages _stage) {\n        assert(stage == _stage);\n        _;\n    }\n\n    modifier transitionNext() {\n        _;\n        nextStage();\n    }\n\n    // Agreement\n    struct Agreement {\n        uint256 agreementPrice;\n        address clientAddress;\n        address providerAddress;\n        bytes32 previewMessage;\n        bytes32 finalMessage;\n        bool approved;\n        mapping(address => uint256) funders;\n    }/**/\n\n    Agreement public agreement;\n\n    event Contribute(\n        address indexed _contributor,\n        uint indexed _value\n    );\n\n    constructor (uint256 _agreementPrice, address _clientAddress) public {\n        agreement.agreementPrice = _agreementPrice;\n        agreement.clientAddress = _clientAddress;\n        agreement.providerAddress = msg.sender;\n        agreement.approved = false;\n    }\n\n    function getAgreement () public view returns\n    (\n        uint256 agreementPrice,\n        address clientAddress,\n        address providerAddress,\n        bytes32 previewMessage,\n        bytes32 finalMessage,\n        bool approved\n    )\n    {\n        agreementPrice = agreement.agreementPrice;\n        clientAddress = agreement.clientAddress;\n        providerAddress = agreement.providerAddress;\n        previewMessage = agreement.previewMessage;\n        finalMessage = agreement.finalMessage;\n        approved = approved;\n    }\n\n    function getProviderAddress () public view returns (address) {\n\n        return agreement.providerAddress;\n    }\n\n    function getClientAddress () public view returns (address) {\n        return agreement.clientAddress;\n    }\n\n    // Funding\n    function contributeFunding() public payable {\n        agreement.funders[msg.sender] = msg.value;\n        assert(address(this).balance >= agreement.agreementPrice);\n        emit Contribute(msg.sender, msg.value);\n        nextStage();\n    }\n\n    // Provider\n    // Make sure to set these uint256 _agreementPrice, address _clientAddress\n    function setPreviewMessage(bytes32 _previewMessage)\n    public\n    atStage(Stages.SetStrings)\n    isProvider\n    {\n        agreement.previewMessage = _previewMessage;\n    }\n\n    function setFinalMessage(bytes32 _finalMessage)\n    public\n    atStage(Stages.SetStrings)\n    isProvider\n    {\n        assert(agreement.previewMessage.length > 0);\n        agreement.finalMessage = _finalMessage;\n        nextStage();\n    }\n\n    // Client\n    function getPreviewMessage()\n    public\n    view\n    atStage(Stages.ApproveOrReject)\n    isClient\n    returns (bytes32)\n    {\n        return agreement.previewMessage;\n    }\n\n    function approvePreview()\n    public\n    atStage(Stages.ApproveOrReject)\n    isClient\n    {\n        agreement.approved = true;\n        agreement.providerAddress.transfer(address(this).balance);\n        nextStage();\n    }\n\n    function getFinalMessage()\n    public\n    view\n    atStage(Stages.PayoutAndReveal)\n    isClient\n    returns (bytes32)\n    {\n        return agreement.finalMessage;\n    }\n\n    function getFundingAmount() public view returns (uint) {\n        return address(this).balance;\n    }\n\n    // Destroy Contract and send remaining balance to provider\n    function kill() public isProvider {\n        selfdestruct(agreement.providerAddress);\n    }\n\n    // Internal\n    function nextStage() internal {\n        stage = Stages(uint(stage) + 1);\n    }\n}",
  "sourcePath": "/Users/johnquiwa/Documents/projects/question/contracts/Escrow.sol",
  "compiler": {
    "name": "solc",
    "version": "0.4.24+commit.e67f0147.Emscripten.clang"
  },
  "schemaVersion": "2.0.0",
  "updatedAt": "2018-06-10T20:02:53.818Z"
}