{
  "contractName": "Escrow",
  "abi": [
    {
      "constant": true,
      "inputs": [],
      "name": "agreement",
      "outputs": [
        {
          "name": "agreementPrice",
          "type": "uint256"
        },
        {
          "name": "clientAddress",
          "type": "address"
        },
        {
          "name": "providerAddress",
          "type": "address"
        },
        {
          "name": "previewMessageOne",
          "type": "bytes32"
        },
        {
          "name": "previewMessageTwo",
          "type": "bytes32"
        },
        {
          "name": "finalMessage",
          "type": "bytes32"
        },
        {
          "name": "approved",
          "type": "bool"
        }
      ],
      "payable": false,
      "stateMutability": "view",
      "type": "function"
    },
    {
      "constant": true,
      "inputs": [],
      "name": "stage",
      "outputs": [
        {
          "name": "",
          "type": "uint8"
        }
      ],
      "payable": false,
      "stateMutability": "view",
      "type": "function"
    },
    {
      "inputs": [
        {
          "name": "_agreementPrice",
          "type": "uint256"
        },
        {
          "name": "_clientAddress",
          "type": "address"
        }
      ],
      "payable": false,
      "stateMutability": "nonpayable",
      "type": "constructor"
    },
    {
      "anonymous": false,
      "inputs": [
        {
          "indexed": false,
          "name": "_contributor",
          "type": "address"
        },
        {
          "indexed": false,
          "name": "_value",
          "type": "uint256"
        }
      ],
      "name": "Contribute",
      "type": "event"
    },
    {
      "anonymous": false,
      "inputs": [
        {
          "indexed": false,
          "name": "_value",
          "type": "uint256"
        }
      ],
      "name": "Stage",
      "type": "event"
    },
    {
      "anonymous": false,
      "inputs": [
        {
          "indexed": false,
          "name": "_partOne",
          "type": "bytes32"
        },
        {
          "indexed": false,
          "name": "_partTwo",
          "type": "bytes32"
        }
      ],
      "name": "SetPreviewUrl",
      "type": "event"
    },
    {
      "constant": true,
      "inputs": [],
      "name": "getAgreementPrice",
      "outputs": [
        {
          "name": "agreementPrice",
          "type": "uint256"
        }
      ],
      "payable": false,
      "stateMutability": "view",
      "type": "function"
    },
    {
      "constant": true,
      "inputs": [],
      "name": "getProviderAddress",
      "outputs": [
        {
          "name": "",
          "type": "address"
        }
      ],
      "payable": false,
      "stateMutability": "view",
      "type": "function"
    },
    {
      "constant": true,
      "inputs": [],
      "name": "getClientAddress",
      "outputs": [
        {
          "name": "",
          "type": "address"
        }
      ],
      "payable": false,
      "stateMutability": "view",
      "type": "function"
    },
    {
      "constant": false,
      "inputs": [],
      "name": "contributeFunding",
      "outputs": [],
      "payable": true,
      "stateMutability": "payable",
      "type": "function"
    },
    {
      "constant": false,
      "inputs": [
        {
          "name": "_previewMessageOne",
          "type": "bytes32"
        },
        {
          "name": "_previewMessageTwo",
          "type": "bytes32"
        }
      ],
      "name": "setPreviewMessage",
      "outputs": [],
      "payable": false,
      "stateMutability": "nonpayable",
      "type": "function"
    },
    {
      "constant": true,
      "inputs": [],
      "name": "getPreviewMessage",
      "outputs": [
        {
          "name": "",
          "type": "bytes32"
        },
        {
          "name": "",
          "type": "bytes32"
        }
      ],
      "payable": false,
      "stateMutability": "view",
      "type": "function"
    },
    {
      "constant": false,
      "inputs": [],
      "name": "approvePreview",
      "outputs": [],
      "payable": false,
      "stateMutability": "nonpayable",
      "type": "function"
    },
    {
      "constant": true,
      "inputs": [],
      "name": "getFinalMessage",
      "outputs": [
        {
          "name": "",
          "type": "bytes32"
        }
      ],
      "payable": false,
      "stateMutability": "view",
      "type": "function"
    },
    {
      "constant": true,
      "inputs": [],
      "name": "getFundingAmount",
      "outputs": [
        {
          "name": "",
          "type": "uint256"
        }
      ],
      "payable": false,
      "stateMutability": "view",
      "type": "function"
    },
    {
      "constant": false,
      "inputs": [],
      "name": "kill",
      "outputs": [],
      "payable": false,
      "stateMutability": "nonpayable",
      "type": "function"
    }
  ],
  "bytecode": "0x608060405260008060006101000a81548160ff0219169083600381111561002257fe5b021790555034801561003357600080fd5b50604051604080610bdb833981018060405281019080805190602001909291908051906020019092919050505081600160000181905550806001800160006101000a81548173ffffffffffffffffffffffffffffffffffffffff021916908373ffffffffffffffffffffffffffffffffffffffff16021790555033600160020160006101000a81548173ffffffffffffffffffffffffffffffffffffffff021916908373ffffffffffffffffffffffffffffffffffffffff1602179055506000600160060160006101000a81548160ff0219169083151502179055505050610abb806101206000396000f3006080604052600436106100ba576000357c0100000000000000000000000000000000000000000000000000000000900463ffffffff1680630912def4146100bf578063370c4d5b146100ea5780633d2e4f901461011557806341c0e1b51461012c5780637db3a946146101435780637ec465f81461020c5780639ea6b4f41461023f578063ba8028fa14610296578063c0238e92146102d8578063c040e6b814610317578063d19f8de914610350578063fa174e0b1461035a575b600080fd5b3480156100cb57600080fd5b506100d46103b1565b6040518082815260200191505060405180910390f35b3480156100f657600080fd5b506100ff6103be565b6040518082815260200191505060405180910390f35b34801561012157600080fd5b5061012a6103dd565b005b34801561013857600080fd5b50610141610517565b005b34801561014f57600080fd5b506101586105b1565b604051808881526020018773ffffffffffffffffffffffffffffffffffffffff1673ffffffffffffffffffffffffffffffffffffffff1681526020018673ffffffffffffffffffffffffffffffffffffffff1673ffffffffffffffffffffffffffffffffffffffff1681526020018560001916600019168152602001846000191660001916815260200183600019166000191681526020018215151515815260200197505050505050505060405180910390f35b34801561021857600080fd5b5061022161062e565b60405180826000191660001916815260200191505060405180910390f35b34801561024b57600080fd5b506102546106cb565b604051808273ffffffffffffffffffffffffffffffffffffffff1673ffffffffffffffffffffffffffffffffffffffff16815260200191505060405180910390f35b3480156102a257600080fd5b506102ab6106f7565b60405180836000191660001916815260200182600019166000191681526020019250505060405180910390f35b3480156102e457600080fd5b506103156004803603810190808035600019169060200190929190803560001916906020019092919050505061079e565b005b34801561032357600080fd5b5061032c61089e565b6040518082600381111561033c57fe5b60ff16815260200191505060405180910390f35b6103586108b0565b005b34801561036657600080fd5b5061036f6109c7565b604051808273ffffffffffffffffffffffffffffffffffffffff1673ffffffffffffffffffffffffffffffffffffffff16815260200191505060405180910390f35b6000600160000154905090565b60003073ffffffffffffffffffffffffffffffffffffffff1631905090565b60028060038111156103eb57fe5b6000809054906101000a900460ff16600381111561040557fe5b14151561041157600080fd5b6001800160009054906101000a900473ffffffffffffffffffffffffffffffffffffffff1673ffffffffffffffffffffffffffffffffffffffff163373ffffffffffffffffffffffffffffffffffffffff1614151561046c57fe5b60018060060160006101000a81548160ff021916908315150217905550600160020160009054906101000a900473ffffffffffffffffffffffffffffffffffffffff1673ffffffffffffffffffffffffffffffffffffffff166108fc3073ffffffffffffffffffffffffffffffffffffffff16319081150290604051600060405180830381858888f1935050505015801561050b573d6000803e3d6000fd5b506105146109f4565b50565b600160020160009054906101000a900473ffffffffffffffffffffffffffffffffffffffff1673ffffffffffffffffffffffffffffffffffffffff163373ffffffffffffffffffffffffffffffffffffffff1614151561057357fe5b600160020160009054906101000a900473ffffffffffffffffffffffffffffffffffffffff1673ffffffffffffffffffffffffffffffffffffffff16ff5b60018060000154908060010160009054906101000a900473ffffffffffffffffffffffffffffffffffffffff16908060020160009054906101000a900473ffffffffffffffffffffffffffffffffffffffff16908060030154908060040154908060050154908060060160009054906101000a900460ff16905087565b6000600380600381111561063e57fe5b6000809054906101000a900460ff16600381111561065857fe5b14151561066457600080fd5b6001800160009054906101000a900473ffffffffffffffffffffffffffffffffffffffff1673ffffffffffffffffffffffffffffffffffffffff163373ffffffffffffffffffffffffffffffffffffffff161415156106bf57fe5b60016005015491505090565b60006001800160009054906101000a900473ffffffffffffffffffffffffffffffffffffffff16905090565b600080600280600381111561070857fe5b6000809054906101000a900460ff16600381111561072257fe5b14151561072e57600080fd5b6001800160009054906101000a900473ffffffffffffffffffffffffffffffffffffffff1673ffffffffffffffffffffffffffffffffffffffff163373ffffffffffffffffffffffffffffffffffffffff1614151561078957fe5b60016003015460016004015492509250509091565b60018060038111156107ac57fe5b6000809054906101000a900460ff1660038111156107c657fe5b1415156107d257600080fd5b600160020160009054906101000a900473ffffffffffffffffffffffffffffffffffffffff1673ffffffffffffffffffffffffffffffffffffffff163373ffffffffffffffffffffffffffffffffffffffff1614151561082e57fe5b826001600301816000191690555081600160040181600019169055507f293560b09da454dafd9d17636d2a319167852f318c2b7c4136017a508aebaa3b838360405180836000191660001916815260200182600019166000191681526020019250505060405180910390a1505050565b6000809054906101000a900460ff1681565b60008060038111156108be57fe5b6000809054906101000a900460ff1660038111156108d857fe5b1415156108e457600080fd5b34600160070160003373ffffffffffffffffffffffffffffffffffffffff1673ffffffffffffffffffffffffffffffffffffffff168152602001908152602001600020819055507f906faaf913a60f38b5e8f2d6f5b163239bac2d994fa1a5d21751a51587a940573334604051808373ffffffffffffffffffffffffffffffffffffffff1673ffffffffffffffffffffffffffffffffffffffff1681526020018281526020019250505060405180910390a16001600001543073ffffffffffffffffffffffffffffffffffffffff16311015156109c4576109c36109f4565b5b50565b6000600160020160009054906101000a900473ffffffffffffffffffffffffffffffffffffffff16905090565b60016000809054906101000a900460ff166003811115610a1057fe5b016003811115610a1c57fe5b6000806101000a81548160ff02191690836003811115610a3857fe5b02179055507f751edc1e3e2fbce1f0f2d915c58bfa59ff2d7a6b79a26bb24bbc2e298167d1236000809054906101000a900460ff166003811115610a7857fe5b6040518082815260200191505060405180910390a15600a165627a7a7230582046535c069f9fe1262e840b938129d94a6f8fa41d6f37964d341ba7cb7b0445780029",
  "source": "pragma solidity 0.4.24;\n\n\ncontract Escrow {\n    // Stage Management\n    enum Stages {\n        Funding,\n        SetStrings,\n        ApproveOrReject,\n        PayoutAndReveal\n    }\n\n    Stages public stage = Stages.Funding;\n\n    modifier isProvider() {\n        assert(msg.sender == agreement.providerAddress);\n        _;\n    }\n\n    modifier isClient() {\n        assert(msg.sender == agreement.clientAddress);\n        _;\n    }\n\n    modifier atStage(Stages _stage) {\n        require(stage == _stage);\n        _;\n    }\n\n    modifier transitionNext() {\n        _;\n        nextStage();\n    }\n\n    // Agreement\n    struct Agreement {\n        uint256 agreementPrice;\n        address clientAddress;\n        address providerAddress;\n        bytes32 previewMessageOne;\n        bytes32 previewMessageTwo;\n        bytes32 finalMessage;\n        bool approved;\n        mapping(address => uint256) funders;\n    }/**/\n\n    Agreement public agreement;\n\n    event Contribute (\n        address _contributor,\n        uint _value\n    );\n\n    event Stage (\n        uint _value\n    );\n\n    event SetPreviewUrl (\n        bytes32 _partOne,\n        bytes32 _partTwo\n    );\n\n    constructor (uint256 _agreementPrice, address _clientAddress) public {\n        agreement.agreementPrice = _agreementPrice;\n        agreement.clientAddress = _clientAddress;\n        agreement.providerAddress = msg.sender;\n        agreement.approved = false;\n    }\n\n    function getAgreementPrice ()\n    public\n    view\n    returns\n    (uint256 agreementPrice)\n    {\n        return agreement.agreementPrice;\n    }\n\n    function getProviderAddress () public view returns (address) {\n\n        return agreement.providerAddress;\n    }\n\n    function getClientAddress () public view returns (address) {\n        return agreement.clientAddress;\n    }\n\n    // Funding\n    function contributeFunding()\n    public\n    payable\n    atStage(Stages.Funding)\n    {\n        agreement.funders[msg.sender] = msg.value;\n        emit Contribute(msg.sender, msg.value);\n\n        if (address(this).balance >= agreement.agreementPrice) {\n            nextStage();\n        }\n    }\n\n    // Provider\n    // Make sure to set these uint256 _agreementPrice, address _clientAddress\n    function setPreviewMessage(bytes32 _previewMessageOne, bytes32 _previewMessageTwo)\n    public\n    atStage(Stages.SetStrings)\n    isProvider\n    {\n        agreement.previewMessageOne = _previewMessageOne;\n        agreement.previewMessageTwo = _previewMessageTwo;\n        emit SetPreviewUrl(_previewMessageOne, _previewMessageTwo);\n    }\n\n//    function setFinalMessage(bytes32 _finalMessage)\n//    public\n//    atStage(Stages.SetStrings)\n//    isProvider\n//    {\n//        assert(agreement.previewMessage.length > 0);\n//        agreement.finalMessage = _finalMessage;\n//        nextStage();\n//    }\n\n    // Client\n    function getPreviewMessage()\n    public\n    view\n    atStage(Stages.ApproveOrReject)\n    isClient\n    returns (bytes32, bytes32)\n    {\n        return (agreement.previewMessageOne, agreement.previewMessageTwo);\n    }\n\n    function approvePreview()\n    public\n    atStage(Stages.ApproveOrReject)\n    isClient\n    {\n        agreement.approved = true;\n        agreement.providerAddress.transfer(address(this).balance);\n        nextStage();\n    }\n\n    function getFinalMessage()\n    public\n    view\n    atStage(Stages.PayoutAndReveal)\n    isClient\n    returns (bytes32)\n    {\n        return agreement.finalMessage;\n    }\n\n    function getFundingAmount() public view returns (uint) {\n        return address(this).balance;\n    }\n\n    // Destroy Contract and send remaining balance to provider\n    function kill() public isProvider {\n        selfdestruct(agreement.providerAddress);\n    }\n\n    // Internal\n    function nextStage() internal {\n        stage = Stages(uint(stage) + 1);\n        emit Stage(uint(stage));\n    }\n}",
  "sourcePath": "/Users/johnquiwa/Documents/projects/question/contracts/Escrow.sol",
  "compiler": {
    "name": "solc",
    "version": "0.4.24+commit.e67f0147.Emscripten.clang"
  },
  "schemaVersion": "2.0.0",
  "updatedAt": "2018-08-01T22:21:22.035Z"
}