{
  "contractName": "Escrow",
  "abi": [
    {
      "constant": true,
      "inputs": [],
      "name": "agreement",
      "outputs": [
        {
          "name": "agreementPrice",
          "type": "uint256"
        },
        {
          "name": "clientAddress",
          "type": "address"
        },
        {
          "name": "providerAddress",
          "type": "address"
        },
        {
          "name": "previewMessageOne",
          "type": "bytes32"
        },
        {
          "name": "previewMessageTwo",
          "type": "bytes32"
        },
        {
          "name": "finalMessage",
          "type": "bytes32"
        },
        {
          "name": "approved",
          "type": "bool"
        }
      ],
      "payable": false,
      "stateMutability": "view",
      "type": "function"
    },
    {
      "constant": true,
      "inputs": [],
      "name": "stage",
      "outputs": [
        {
          "name": "",
          "type": "uint8"
        }
      ],
      "payable": false,
      "stateMutability": "view",
      "type": "function"
    },
    {
      "inputs": [
        {
          "name": "_agreementPrice",
          "type": "uint256"
        },
        {
          "name": "_clientAddress",
          "type": "address"
        }
      ],
      "payable": false,
      "stateMutability": "nonpayable",
      "type": "constructor"
    },
    {
      "anonymous": false,
      "inputs": [
        {
          "indexed": false,
          "name": "_contributor",
          "type": "address"
        },
        {
          "indexed": false,
          "name": "_value",
          "type": "uint256"
        }
      ],
      "name": "Contribute",
      "type": "event"
    },
    {
      "anonymous": false,
      "inputs": [
        {
          "indexed": false,
          "name": "_value",
          "type": "uint256"
        }
      ],
      "name": "Stage",
      "type": "event"
    },
    {
      "anonymous": false,
      "inputs": [
        {
          "indexed": false,
          "name": "_partOne",
          "type": "bytes32"
        },
        {
          "indexed": false,
          "name": "_partTwo",
          "type": "bytes32"
        }
      ],
      "name": "SetPreviewUrl",
      "type": "event"
    },
    {
      "constant": true,
      "inputs": [],
      "name": "getProviderAddress",
      "outputs": [
        {
          "name": "",
          "type": "address"
        }
      ],
      "payable": false,
      "stateMutability": "view",
      "type": "function"
    },
    {
      "constant": true,
      "inputs": [],
      "name": "getClientAddress",
      "outputs": [
        {
          "name": "",
          "type": "address"
        }
      ],
      "payable": false,
      "stateMutability": "view",
      "type": "function"
    },
    {
      "constant": false,
      "inputs": [],
      "name": "contributeFunding",
      "outputs": [],
      "payable": true,
      "stateMutability": "payable",
      "type": "function"
    },
    {
      "constant": false,
      "inputs": [
        {
          "name": "_previewMessageOne",
          "type": "bytes32"
        },
        {
          "name": "_previewMessageTwo",
          "type": "bytes32"
        }
      ],
      "name": "setPreviewMessage",
      "outputs": [],
      "payable": false,
      "stateMutability": "nonpayable",
      "type": "function"
    },
    {
      "constant": true,
      "inputs": [],
      "name": "getPreviewMessage",
      "outputs": [
        {
          "name": "",
          "type": "bytes32"
        },
        {
          "name": "",
          "type": "bytes32"
        }
      ],
      "payable": false,
      "stateMutability": "view",
      "type": "function"
    },
    {
      "constant": false,
      "inputs": [],
      "name": "approvePreview",
      "outputs": [],
      "payable": false,
      "stateMutability": "nonpayable",
      "type": "function"
    },
    {
      "constant": true,
      "inputs": [],
      "name": "getFinalMessage",
      "outputs": [
        {
          "name": "",
          "type": "bytes32"
        }
      ],
      "payable": false,
      "stateMutability": "view",
      "type": "function"
    },
    {
      "constant": true,
      "inputs": [],
      "name": "getFundingAmount",
      "outputs": [
        {
          "name": "",
          "type": "uint256"
        }
      ],
      "payable": false,
      "stateMutability": "view",
      "type": "function"
    },
    {
      "constant": false,
      "inputs": [],
      "name": "kill",
      "outputs": [],
      "payable": false,
      "stateMutability": "nonpayable",
      "type": "function"
    }
  ],
  "bytecode": "0x608060405260008060006101000a81548160ff0219169083600381111561002257fe5b021790555034801561003357600080fd5b50604051604080610b98833981018060405281019080805190602001909291908051906020019092919050505081600160000181905550806001800160006101000a81548173ffffffffffffffffffffffffffffffffffffffff021916908373ffffffffffffffffffffffffffffffffffffffff16021790555033600160020160006101000a81548173ffffffffffffffffffffffffffffffffffffffff021916908373ffffffffffffffffffffffffffffffffffffffff1602179055506000600160060160006101000a81548160ff0219169083151502179055505050610a78806101206000396000f3006080604052600436106100af576000357c0100000000000000000000000000000000000000000000000000000000900463ffffffff168063370c4d5b146100b45780633d2e4f90146100df57806341c0e1b5146100f65780637db3a9461461010d5780637ec465f8146101d65780639ea6b4f414610209578063ba8028fa14610260578063c0238e92146102a2578063c040e6b8146102e1578063d19f8de91461031a578063fa174e0b14610324575b600080fd5b3480156100c057600080fd5b506100c961037b565b6040518082815260200191505060405180910390f35b3480156100eb57600080fd5b506100f461039a565b005b34801561010257600080fd5b5061010b6104d4565b005b34801561011957600080fd5b5061012261056e565b604051808881526020018773ffffffffffffffffffffffffffffffffffffffff1673ffffffffffffffffffffffffffffffffffffffff1681526020018673ffffffffffffffffffffffffffffffffffffffff1673ffffffffffffffffffffffffffffffffffffffff1681526020018560001916600019168152602001846000191660001916815260200183600019166000191681526020018215151515815260200197505050505050505060405180910390f35b3480156101e257600080fd5b506101eb6105eb565b60405180826000191660001916815260200191505060405180910390f35b34801561021557600080fd5b5061021e610688565b604051808273ffffffffffffffffffffffffffffffffffffffff1673ffffffffffffffffffffffffffffffffffffffff16815260200191505060405180910390f35b34801561026c57600080fd5b506102756106b4565b60405180836000191660001916815260200182600019166000191681526020019250505060405180910390f35b3480156102ae57600080fd5b506102df6004803603810190808035600019169060200190929190803560001916906020019092919050505061075b565b005b3480156102ed57600080fd5b506102f661085b565b6040518082600381111561030657fe5b60ff16815260200191505060405180910390f35b61032261086d565b005b34801561033057600080fd5b50610339610984565b604051808273ffffffffffffffffffffffffffffffffffffffff1673ffffffffffffffffffffffffffffffffffffffff16815260200191505060405180910390f35b60003073ffffffffffffffffffffffffffffffffffffffff1631905090565b60028060038111156103a857fe5b6000809054906101000a900460ff1660038111156103c257fe5b1415156103ce57600080fd5b6001800160009054906101000a900473ffffffffffffffffffffffffffffffffffffffff1673ffffffffffffffffffffffffffffffffffffffff163373ffffffffffffffffffffffffffffffffffffffff1614151561042957fe5b60018060060160006101000a81548160ff021916908315150217905550600160020160009054906101000a900473ffffffffffffffffffffffffffffffffffffffff1673ffffffffffffffffffffffffffffffffffffffff166108fc3073ffffffffffffffffffffffffffffffffffffffff16319081150290604051600060405180830381858888f193505050501580156104c8573d6000803e3d6000fd5b506104d16109b1565b50565b600160020160009054906101000a900473ffffffffffffffffffffffffffffffffffffffff1673ffffffffffffffffffffffffffffffffffffffff163373ffffffffffffffffffffffffffffffffffffffff1614151561053057fe5b600160020160009054906101000a900473ffffffffffffffffffffffffffffffffffffffff1673ffffffffffffffffffffffffffffffffffffffff16ff5b60018060000154908060010160009054906101000a900473ffffffffffffffffffffffffffffffffffffffff16908060020160009054906101000a900473ffffffffffffffffffffffffffffffffffffffff16908060030154908060040154908060050154908060060160009054906101000a900460ff16905087565b600060038060038111156105fb57fe5b6000809054906101000a900460ff16600381111561061557fe5b14151561062157600080fd5b6001800160009054906101000a900473ffffffffffffffffffffffffffffffffffffffff1673ffffffffffffffffffffffffffffffffffffffff163373ffffffffffffffffffffffffffffffffffffffff1614151561067c57fe5b60016005015491505090565b60006001800160009054906101000a900473ffffffffffffffffffffffffffffffffffffffff16905090565b60008060028060038111156106c557fe5b6000809054906101000a900460ff1660038111156106df57fe5b1415156106eb57600080fd5b6001800160009054906101000a900473ffffffffffffffffffffffffffffffffffffffff1673ffffffffffffffffffffffffffffffffffffffff163373ffffffffffffffffffffffffffffffffffffffff1614151561074657fe5b60016003015460016004015492509250509091565b600180600381111561076957fe5b6000809054906101000a900460ff16600381111561078357fe5b14151561078f57600080fd5b600160020160009054906101000a900473ffffffffffffffffffffffffffffffffffffffff1673ffffffffffffffffffffffffffffffffffffffff163373ffffffffffffffffffffffffffffffffffffffff161415156107eb57fe5b826001600301816000191690555081600160040181600019169055507f293560b09da454dafd9d17636d2a319167852f318c2b7c4136017a508aebaa3b838360405180836000191660001916815260200182600019166000191681526020019250505060405180910390a1505050565b6000809054906101000a900460ff1681565b600080600381111561087b57fe5b6000809054906101000a900460ff16600381111561089557fe5b1415156108a157600080fd5b34600160070160003373ffffffffffffffffffffffffffffffffffffffff1673ffffffffffffffffffffffffffffffffffffffff168152602001908152602001600020819055507f906faaf913a60f38b5e8f2d6f5b163239bac2d994fa1a5d21751a51587a940573334604051808373ffffffffffffffffffffffffffffffffffffffff1673ffffffffffffffffffffffffffffffffffffffff1681526020018281526020019250505060405180910390a16001600001543073ffffffffffffffffffffffffffffffffffffffff1631101515610981576109806109b1565b5b50565b6000600160020160009054906101000a900473ffffffffffffffffffffffffffffffffffffffff16905090565b60016000809054906101000a900460ff1660038111156109cd57fe5b0160038111156109d957fe5b6000806101000a81548160ff021916908360038111156109f557fe5b02179055507f751edc1e3e2fbce1f0f2d915c58bfa59ff2d7a6b79a26bb24bbc2e298167d1236000809054906101000a900460ff166003811115610a3557fe5b6040518082815260200191505060405180910390a15600a165627a7a723058200444d92cbf050f59f3d8fcd19f7d8d0362f27c37c3cb0bddff20c3fe333bf2d70029",
  "source": "pragma solidity 0.4.24;\n\n\ncontract Escrow {\n    // Stage Management\n    enum Stages {\n        Funding,\n        SetStrings,\n        ApproveOrReject,\n        PayoutAndReveal\n    }\n\n    Stages public stage = Stages.Funding;\n\n    modifier isProvider() {\n        assert(msg.sender == agreement.providerAddress);\n        _;\n    }\n\n    modifier isClient() {\n        assert(msg.sender == agreement.clientAddress);\n        _;\n    }\n\n    modifier atStage(Stages _stage) {\n        require(stage == _stage);\n        _;\n    }\n\n    modifier transitionNext() {\n        _;\n        nextStage();\n    }\n\n    // Agreement\n    struct Agreement {\n        uint256 agreementPrice;\n        address clientAddress;\n        address providerAddress;\n        bytes32 previewMessageOne;\n        bytes32 previewMessageTwo;\n        bytes32 finalMessage;\n        bool approved;\n        mapping(address => uint256) funders;\n    }/**/\n\n    Agreement public agreement;\n\n    event Contribute (\n        address _contributor,\n        uint _value\n    );\n\n    event Stage (\n        uint _value\n    );\n\n    event SetPreviewUrl (\n        bytes32 _partOne,\n        bytes32 _partTwo\n    );\n\n    constructor (uint256 _agreementPrice, address _clientAddress) public {\n        agreement.agreementPrice = _agreementPrice;\n        agreement.clientAddress = _clientAddress;\n        agreement.providerAddress = msg.sender;\n        agreement.approved = false;\n    }\n\n//    function getAgreement () public view returns\n//    (\n//        uint256 agreementPrice,\n//        address clientAddress,\n//        address providerAddress,\n//        bytes32 previewMessage,\n//        bytes32 finalMessage,\n//        bool approved\n//    )\n//    {\n//        agreementPrice = agreement.agreementPrice;\n//        clientAddress = agreement.clientAddress;\n//        providerAddress = agreement.providerAddress;\n//        previewMessage = agreement.previewMessageOne;\n//        previewMessage = agreement.previewMessageTwo;\n//        finalMessage = agreement.finalMessage;\n//        approved = approved;\n//    }\n\n    function getProviderAddress () public view returns (address) {\n\n        return agreement.providerAddress;\n    }\n\n    function getClientAddress () public view returns (address) {\n        return agreement.clientAddress;\n    }\n\n    // Funding\n    function contributeFunding()\n    public\n    payable\n    atStage(Stages.Funding)\n    {\n        agreement.funders[msg.sender] = msg.value;\n        emit Contribute(msg.sender, msg.value);\n\n        if (address(this).balance >= agreement.agreementPrice) {\n            nextStage();\n        }\n    }\n\n    // Provider\n    // Make sure to set these uint256 _agreementPrice, address _clientAddress\n    function setPreviewMessage(bytes32 _previewMessageOne, bytes32 _previewMessageTwo)\n    public\n    atStage(Stages.SetStrings)\n    isProvider\n    {\n        agreement.previewMessageOne = _previewMessageOne;\n        agreement.previewMessageTwo = _previewMessageTwo;\n        emit SetPreviewUrl(_previewMessageOne, _previewMessageTwo);\n    }\n\n//    function setFinalMessage(bytes32 _finalMessage)\n//    public\n//    atStage(Stages.SetStrings)\n//    isProvider\n//    {\n//        assert(agreement.previewMessage.length > 0);\n//        agreement.finalMessage = _finalMessage;\n//        nextStage();\n//    }\n\n    // Client\n    function getPreviewMessage()\n    public\n    view\n    atStage(Stages.ApproveOrReject)\n    isClient\n    returns (bytes32, bytes32)\n    {\n        return (agreement.previewMessageOne, agreement.previewMessageTwo);\n    }\n\n    function approvePreview()\n    public\n    atStage(Stages.ApproveOrReject)\n    isClient\n    {\n        agreement.approved = true;\n        agreement.providerAddress.transfer(address(this).balance);\n        nextStage();\n    }\n\n    function getFinalMessage()\n    public\n    view\n    atStage(Stages.PayoutAndReveal)\n    isClient\n    returns (bytes32)\n    {\n        return agreement.finalMessage;\n    }\n\n    function getFundingAmount() public view returns (uint) {\n        return address(this).balance;\n    }\n\n    // Destroy Contract and send remaining balance to provider\n    function kill() public isProvider {\n        selfdestruct(agreement.providerAddress);\n    }\n\n    // Internal\n    function nextStage() internal {\n        stage = Stages(uint(stage) + 1);\n        emit Stage(uint(stage));\n    }\n}",
  "sourcePath": "/Users/johnquiwa/Documents/projects/question/contracts/Escrow.sol",
  "compiler": {
    "name": "solc",
    "version": "0.4.24+commit.e67f0147.Emscripten.clang"
  },
  "schemaVersion": "2.0.0",
  "updatedAt": "2018-07-13T00:03:14.446Z"
}